:1000000002308A00FE2A00000C2A61346110CB30D5
:10001000F23000000A1930193019B31BB01BB018A8
:1000200038008C256936693AEC3400010A21C12A6E
:100030004E10C5224D000C2861396F366110C7344F
:10004000F234EE347A008C256936693AEC326E323D
:10005000E91000010C2861396F366110C734F234A1
:10006000EE347A008C2B4526C327CD2200010C28C4
:1000700061396F366110C734F234EE347A000C28DF
:1000800061396F366110C830F430EC3400010C284F
:1000900061396F366110C734F234EE347A00303093
:1000A000840083130008031963280130F800F70166
:1000B000F70B5828F80B57284A30F700F70B5E2843
:1000C0006128800B55280800361868280612692810
:1000D0000616831606128312B61870288611712828
:1000E0008615831686118312361978280611792809
:1000F0000615831606118312B619802886108128EA
:1001000086148316861000008312861683168612C4
:100110008928831286128316861283120800B7017B
:100120008316061600308312061A0130B7048316B0
:1001300086150030831286190130F7000310F70D81
:100140007708B704831606150030831206190130AC
:10015000F700F70DF70DFC30F7057708B7048316A5
:1001600086140030831286180130F700F70DF70D62
:10017000F70DF830F7057708B7043708F8000800DE
:10018000831686128613061383128613831686132C
:10019000061686150615861483120617831606138F
:1001A00000008312861683168612000083128F20A9
:1001B0007808B6008612831686120000831286160F
:1001C00083168612000083128F207808B5008612ED
:1001D0008316861206128611061186108312360EB9
:1001E000F700F030F70577083504F8007808B50017
:1001F000B51FFC288316C828B308031D01298613E0
:1002000002298617831686130000831206138316AD
:100210000613000083128612831686128312340E90
:10022000B5000F30B5053508B600642034080F3925
:10023000B500B600642008002830AC000C30AD00DA
:100240000130AE000630AF0086128316861283128C
:10025000861383168613831206138316061306125B
:100260008611061186108612861306130F3083122C
:10027000B0004F200130AB002B08033C031C482981
:100280000330B60064200530B0004F20AB0A3C2993
:100290000230B60064200530B0004F20AB012B08BF
:1002A000033C031C5F292C302B07840083130008B8
:1002B000B000B3013008B400C020AB0A4F298A1146
:1002C0000A12292B300B652968294030B1006929B1
:1002D000B10101302F02B10731088038B200B301FB
:1002E0003208B400C02008002E08073A03198229FA
:1002F0000B3A03198729063A03198F29023A031981
:1003000095299A290130AF00B00062219F29B301DD
:100310000130B400C0200230B0004F209F290130CE
:10032000AF000230B00062219F29B3011030B40049
:10033000C0209F290130B3002E08B400C02008005F
:100340000B08AB008B13831603178C170C140000DB
:10035000000083120313AB1B8B1703170C087F39A4
:100360000319F4290313AB0003170D080313AC00A2
:1003700003170F080313AD002B08AE0074212C08DF
:1003800003178D0003132D0803178F0003130B08A9
:10039000AE008B13831603178C170C14000000009B
:1003A00083120313AE1B8B1703170C0D0E0D7F3931
:1003B0000319F4290313AB0003170D080313AC0052
:1003C00003170F080313AD002B08AE0074212C088F
:1003D00003178D0003132D0803178F008D0A0319CF
:1003E0008F0A0313A029031703130800831688013B
:1003F00083128801A001831608128312081683163F
:1004000008148312081C0C2A831608148312081877
:10041000042A0130A000A100831688148312881CCE
:100420001A2A8316881483128818112A0230A00011
:100430000130A100831608158312081D282A83168F
:100440000815831208191F2A0330A0000130A100EB
:10045000831688158312881D362A83168815831201
:1004600088192D2A0A30A0000130A1008316081235
:1004700083120812831688128312881683160814B2
:100480008312081C4C2A8316081483120818432A66
:100490000430A0000130A100831688148312881C48
:1004A0005A2A8316881483128818512A0530A0000E
:1004B0000130A100831608158312081D682A8316CF
:1004C0000815831208195F2A0630A0000130A10028
:1004D000831688158312881D762A83168815831241
:1004E00088196D2A0B30A0000130A10083168812F4
:1004F00083128812831608138312081783160814B0
:100500008312081C8C2A8316081483120818832A65
:100510000730A0000130A100831688148312881CC4
:100520009A2A8316881483128818912A0830A0000A
:100530000130A100831608158312081DA82A83160E
:100540000815831208199F2A0930A0000130A10064
:10055000831688158312881DB62A83168815831280
:100560008819AD2A0C30A0000130A10083160813B1
:1005700083120813831688138312881783160814AE
:100580008312081CCC2A8316081483120818C32A65
:100590000E30A0000130A100831688148312881C3D
:1005A000D92A8316881483128818D12AA001013011
:1005B000A100831608158312081DE72A8316081563
:1005C00083120819DE2A0F30A0000130A100831623
:1005D00088158312881DF52A8316881583128819B9
:1005E000EC2A0D30A0000130A1008316881383127D
:1005F00088132008F8008A110A125E2B03081F399D
:100600008300A001FF30A60083161F149F141F153E
:100610009F1107309C00831301308312A200093020
:10062000A300A4010330A5008316091283129001D0
:100630000030F80092000030831692001F149F14BF
:100640001F159F1183121F100F308316880083120D
:100650001C29043003178D0000308F000313A021E4
:100660000A3003178D0000308F000313A0210630DD
:10067000AB00FA30B0004F20AB0B392B1130031711
:100680008D0000308F000313A021163003178D005A
:1006900000308F000313A0210630AB00FA30B00009
:1006A0004F20AB0B4E2B1B3003178D0000308F00FB
:1006B0000313A021A701A801AA01F6297808A9001F
:1006C000210BE12BA10107302707AB00AF0002305F
:1006D000B00062212A30AE00742122302707840046
:1006E00083132908000203199C2B0130A800A701DD
:1006F000AA0A2A08023C03189B2B233003178D00FB
:1007000000308F000313A0212610260883168700CF
:1007100083120710A930AB00E030B0004F20AB0BC4
:100720008C2BB0014F20AA012A3003178D00003016
:100730008F000313A021C42BA70A2708043C031D24
:10074000C42B323003178D0000308F000313A0211B
:100750002610260883168700831207140830AB0082
:10076000FA30B0004F20AB0BB02B261026088316B2
:10077000870083120710373003178D0000308F0079
:100780000313A021A701AA01280BE12B3F30031777
:100790008D0000308F000313A0210F30AF00023016
:1007A000B00062210830AB00FA30B0004F20AB0B34
:1007B000D42BA801473003178D0000308F0003139E
:0607C000A0215D2B630087
:02400E00313F40
:00000001FF
;PIC16F877A
;CRC=713D  CREATED="21-May-24 02:39"
