:1000000003308A00EF2B0000FF00030E8301A100E4
:100010000A08A0008A010408A2007708A300780853
:10002000A4007908A5007A08A60003170D08031399
:10003000A70003170F080313A80003170C080313E6
:10004000A90003170E080313AA00831383128C3030
:100050008400001C2D280C184E2822088400230838
:10006000F7002408F8002508F9002608FA002708F8
:1000700003178D000313280803178F0003132908A3
:1000800003178C0003132A0803178E00031320089C
:100090008A00210E8300FF0E7F0E09008A110A12CA
:1000A0005128B00A30080A3C031D6028B308031D1C
:1000B0006028B101B0010130B20083160C10831228
:1000C000330B6E283008053C031D6E28B001B301C8
:1000D0000130B400B10183160C1083120C108A1188
:1000E0000A122D280C2861396F366110C734F2349A
:1000F000EE347A008C2B4526C327CD2200018C25B7
:100100006936693AEC326E32E91000004030840002
:100110008313000803199A280130F800F701F70B40
:100120008F28F80B8E284A30F700F70B952898286F
:10013000800B8C28080046189F280612A028061657
:10014000831606128312C618A7288611A8288615BA
:100150008316861183124619AF280611B02806159A
:10016000831606118312C619B7288610B82886147C
:100170008316861000008312861683168612C02806
:10018000831286128316861283120800C701831613
:10019000061600308312061A0130C704831686152E
:1001A0000030831286190130F7000310F70D77082D
:1001B000C704831606150030831206190130F700B4
:1001C000F70DF70DFC30F7057708C7048316861482
:1001D0000030831286180130F700F70DF70DF70D88
:1001E000F830F7057708C7044708F80008008316B9
:1001F0008612861306138312861383168613061639
:10020000861506158614831206178316061300003A
:10021000831286168316861200008312C620780881
:10022000C600861283168612000083128616831675
:10023000861200008312C6207808C5008612831635
:10024000861206128611061186108312460EF700DA
:10025000F030F70577084504F8007808C500C51F99
:1002600033298316FF28C308031D3829861339292B
:10027000861783168613000083120613831606134F
:10028000000083128612831686128312440EC50064
:100290000F30C5054508C6009B2044080F39C5002E
:1002A000C6009B2008002830BC000C30BD00013087
:1002B000BE000630BF008612831686128312861394
:1002C00083168613831206138316061306128611ED
:1002D000061186108612861306130F308312C00093
:1002E00086200130BB003B08033C031C7F29033000
:1002F000C6009B200530C0008620BB0A732902304F
:10030000C6009B200530C0008620BB013B08033C93
:10031000031C96293C303B07840083130008C0006F
:10032000C3014008C400F720BB0A86298A110A12BB
:10033000222C400B9C299F294030C100A029C101DB
:1003400001303F02C10741088038C200C3014208A2
:10035000C400F72008003E08073A0319B9290B3AF0
:100360000319BE29063A0319C629023A0319CC29F2
:10037000D1290130BF00C0009921D629C301013025
:10038000C400F7200230C0008620D6290130BF000B
:100390000230C0009921D629C3011030C400F720D3
:1003A000D6290130C3003E08C400F72008000B081E
:1003B000BB008B13831603178C170C14000000006E
:1003C00083120313BB1B8B1703170C087F39031908
:1003D0002B2A0313BB0003170D080313BC000317DC
:1003E0000F080313BD003B08BE00AB213C080317F8
:1003F0008D0003133D0803178F0003130B08BE0085
:100400008B13831603178C170C1400000000831243
:100410000313BE1B8B1703170C0D0E0D7F39031929
:100420002B2A0313BB0003170D080313BC0003178B
:100430000F080313BD003B08BE00AB213C080317A7
:100440008D0003133D0803178F008D0A03198F0ACF
:100450000313D729031703130800BD013D08033C0C
:10046000031CCE2B340B3B2AB401BA103A08831676
:10047000870083128710831605148312051C4C2AEB
:10048000B508031D4C2A3A123A08831687008312D6
:1004900007160130B500532AB5013A123A088316FF
:1004A0008700831207128316081283120816831618
:1004B00008148312081C742A83160814831208185F
:1004C0005C2A3D083B07840083133C1883170130E6
:1004D000800007303D07BE00BF000230C0009921F8
:1004E0002A30BE00AB21BD0A831688148312881CF3
:1004F000912A8316881483128818792A3D083B07AD
:10050000840083133C1883170230800007303D07B6
:10051000BE00BF000230C00099212A30BE00AB21CE
:10052000BD0A831608158312081DAE2A8316081506
:1005300083120819962A3D083B07840083133C1850
:1005400083170330800007303D07BE00BF00023034
:10055000C00099212A30BE00AB21BD0A83160812C3
:1005600083120812831688128312881683160814C1
:100570008312081CD32A8316081483120818BB2A76
:100580003D083B07840083133C1883170430800028
:1005900007303D07BE00BF000230C00099212A305D
:1005A000BE00AB21BD0A831688148312881CF02A72
:1005B0008316881483128818D82A3D083B078400C4
:1005C00083133C1883170530800007303D07BE00B9
:1005D000BF000230C00099212A30BE00AB21BD0A05
:1005E000831608158312081D0D2B83160815831218
:1005F0000819F52A3D083B07840083133C1883172C
:100600000630800007303D07BE00BF000230C0004A
:1006100099212A30BE00AB21BD0A831688128312AD
:10062000881283160813831208178316081483127E
:10063000081C312B83160814831208181A2B3D0846
:100640003B07840083133C188317073080003D0765
:10065000BE00BF000230C00099212A30BE00AB218D
:10066000BD0A831688148312881C4E2B83168814A7
:1006700083128818362B3D083B07840083133C18EF
:1006800083170830800007303D07BE00BF000230EE
:10069000C00099212A30BE00AB21BD0A831608157F
:1006A0008312081D6B2B8316081583120819532B10
:1006B0003D083B07840083133C18831709308000F2
:1006C00007303D07BE00BF000230C00099212A302C
:1006D000BE00AB21BD0A83160813831208138316CC
:1006E000881383128817831608148312081C902B12
:1006F0008316081483120818782B3D083B078400E2
:1007000083133C1883170C30800007303D07BE0070
:10071000BF000230C00099212A30BE00AB21BD0AC3
:10072000831688148312881CAC2B831688148312BA
:100730008818952B3D083B07840083133C188317CA
:10074000800107303D07BE00BF000230C000992184
:100750002A30BE00AB21BD0A831608158312081D7E
:10076000C92B8316081583120819B12B3D083B07C6
:10077000840083133C1883170D30800007303D0739
:10078000BE00BF000230C00099212A30BE00AB215C
:10079000BD0A83168813831288132E2ABD018A117D
:1007A0000A123F2CBB013B08033C031CEA2B2B30F5
:1007B0003B07840083130008BC0036303B078400ED
:1007C000831300083C020319E82B0030F800EC2BDF
:1007D000BB0AD32B0130F8008A110A12402C0308FF
:1007E0001F398300AF01B001B101B201B301B401FF
:1007F000B501FF30BA0083161F149F141F159F11F7
:1008000007309C0083130B308312AB00AC00AD00AB
:10081000AE000130B6000930B700B8010330B900AE
:10082000B53090008316880183128801C0308B0494
:1008300000308316880087008312BA008316850073
:1008400083125329BA113A08831687008312871539
:10085000BA103A088316870083128710310B312CA7
:10086000582C330B342C582C723003178D00003069
:100870008F000313D721BC012B30BB002D2AD22BB4
:10088000780B432C452CAF0A582CAF01BA103A080C
:1008900083168700831287147A3003178D00003087
:1008A0008F000313D7210130B30083160C14831279
:1008B0002F08033C031D692C7F3003178D00003087
:1008C0008F000313D721AF0183160C14013083125C
:0608D000B1002E2C6300B4
:02400E00313F40
:00000001FF
;PIC16F877A
;CRC=204E  CREATED="21-May-24 04:05"
